:020000040000FA
:0400000080314528DE
:100008007E1480318431F12480312000AE005330D9
:100018002E06031D102811281428FC14AD014328AE
:1000280050302E06031919281A283028FC1C1D28C0
:100038001E2830282D08283E860087012E088100BA
:100048000130F0007008AD0702302D02031C2D2886
:100058002E284328FC10432850302E06031D35282F
:1000680036284328FC1C39283A28432831302806EA
:10007800031D3F28402843287C14FC1043287E1089
:100088000900803147288431FF248031E000FC01D9
:10009800203084000030850024308431F9248031F8
:1000A8007E102000803158287F30210099000C12E2
:1000B80022000C1221008E1122008E1123000E1135
:1000C80021000C1523000C1521000E1423000E141A
:1000D8008431B3248031803021009E002000AF019C
:1000E8005330B000B101B10A5030C0005730DE00C3
:1000F8000430DF000A30C4000030C500E830F100E9
:100108000330F2005730F3000430F4008331D02379
:10011800803172082000C7007108C60084310C24A1
:10012800803120004408303EBC000A30C400003052
:10013800C5006430F1000030F2005730F30004309D
:10014800F4008331D023803172082000C700710881
:10015800C60084310C24803120004408303EBD00A4
:100168000A30C4000030C5000A30F1000030F20047
:100178005730F3000430F4008331D0238031720803
:100188002000C7007108C60084310C24803120008B
:100198004408303EBE000A30C4000030C500573065
:1001A800C6000430C70084310C2480312000440884
:1001B800303EBF008431C624803102302000DD008B
:1001C800A030DC009230890BE728DC0BE728DD0B38
:1001D800E728000082317222803178082000A300CD
:1001E8007708A2007608A1007508A0000030CC00AE
:1001F8000030CB000030CA000A30C9000030F400DB
:100208000130F3008630F200A030F1002308F80036
:100218002208F7002108F6002008F50083312A2378
:10022800803174082000D0007308CF007208CE0017
:100238007108CD0083318523803120004908303E84
:10024800B2000030CC000030CB000030CA000A30C9
:10025800C9000030F4000030F3002730F2001030FD
:10026800F1002308F8002208F7002108F60020080A
:10027800F50083312A23803174082000D0007308E8
:10028800CF007208CE007108CD00833185238031FC
:1002980020004908303EB3000030CC000030CB00CD
:1002A8000030CA000A30C9000030F4000030F30002
:1002B8000330F200E830F1002308F8002208F700C4
:1002C8002108F6002008F50083312A2380317408BC
:1002D8002000D0007308CF007208CE007108CD004E
:1002E80083318523803120004908303EB400003036
:1002F800CC000030CB000030CA000A30C900003002
:10030800F4000030F3000030F2006430F1002308FC
:10031800F8002208F7002108F6002008F5008331CC
:100328002A23803174082000D0007308CF00720897
:10033800CE007108CD008331852380312000490823
:10034800303EB5000030CC000030CB000030CA0091
:100358000A30C9000030F4000030F3000030F20029
:100368000A30F1002308F8002208F7002108F600F7
:100378002008F50083312A23803174082000D0003A
:100388007308CF007208CE007108CD008331852331
:10039800803120004908303EB6000030CC000030E3
:1003A800CB000030CA000A30C9002308D000220858
:1003B800CF002108CE002008CD008331852380316D
:1003C80020004908303EB700093021009D00423026
:1003D800890BEC29003221009D1402302000DD0039
:1003E8000430DC00BA30890BF729DC0BF729DD0B68
:1003F800F729000021001C082000AC0021001B0880
:100408002000AB000A30C4000030C500E830F1001D
:100418000330F2002C08F4002B08F3008331D023BA
:10042800803172082000C7007108C60084310C248E
:10043800803120004408303EB8000A30C400003043
:10044800C5006430F1000030F2002C08F4002B08DD
:10045800F3008331D023803172082000C70071086F
:10046800C60084310C24803120004408303EB90095
:100478000A30C4000030C5000A30F1000030F20034
:100488002C08F4002B08F3008331D0238031720844
:100498002000C7007108C60084310C248031200078
:1004A8004408303EBA000A30C4000030C5002C08A9
:1004B800C7002B08C60084310C2480312000440872
:1004C800303EBB007C1C692A6A2ADE287C1030304A
:1004D80084319C248031DE28803145288431E82409
:1004E8008231713084317524823101308431412464
:1004F80082310130843141248231013084314124F8
:10050800823101308431412482310F392000C40006
:10051800C501C601C7014708CF004608CE004508F7
:10052800CD004408CC0001308431412482312000C0
:10053800C400C501C601C7014708D3004608D20058
:100548004508D1004408D00000308431412482316C
:100558002000C400C501C601C7014708D7004608E6
:10056800D6004508D5004408D4008431DF24823100
:1005780020005008C4005108C5005208C60053089E
:10058800C7000830C435C50DC60DC70D890BC62A6E
:100598000F304C05C80000304D05C90000304E052D
:1005A800CA0000304F05CB001030C835C90DCA0D40
:1005B800CB0D890BD92A4808C4044908C5044A0840
:1005C800C6044B08C70454084404D8005508450419
:1005D800D90056084604DA0057084704DB005B08D0
:1005E800031D002B86305802EB30593B0B305A3B29
:1005F800031CFF2A002B092B00302000DB000B30E6
:10060800DA00EB30D9008530D80020005B08031DE4
:10061800162BCD305802CC30593B04305A3B0318C6
:10062800162B172B202B00302000DB000430DA00BB
:10063800CC30D900CD30D80020005B08F8005A082B
:10064800F7005908F6005808F500080000302000A7
:10065800C7000030C6000030C5000030C400740870
:1006680073047204710403193A2B3B2B7C2BC801C9
:10067800C80A492B0130F135F20DF30DF40D890B41
:100688003F2B0130F9007908C807F41F4C2B4D2B7C
:100698003E2B0130C435C50DC60DC70D890B4E2B39
:1006A80074087802031D622B73087702031D622BFE
:1006B80072087602031D622B71087502031C652BF4
:1006C800662B6F2B7108F5027208F63B7308F73B2F
:1006D8007408F83B44140130F436F30CF20CF10CB6
:1006E800890B702B0130C802031D7B2B7C2B4D2BF3
:1006F8004708F4004608F3004508F2004408F100F2
:10070800080020004C084B044A04490403198D2BA7
:100718008E2BC72BFB01FB0A9C2B0130C935CA0D58
:10072800CB0DCC0D890B922B0130FA007A08FB0710
:10073800CC1F9F2BA02B912B4C085002031DAE2BD6
:100748004B084F02031DAE2B4A084E02031DAE2B69
:1007580049084D02031CB12BB22BBA2B4908CD0214
:100768004A08CE3B4B08CF3B4C08D03B0130CC3637
:10077800CB0CCA0CC90C890BBB2B0130FB02031D27
:10078800C62BC72BA02B5008CC004F08CB004E0817
:10079800CA004D08C9000800F601F7017108720483
:1007A8000319D72BD82B072CF801F80AE42B0130B2
:1007B800F135F20D890BDC2B0130F5007508F807CF
:1007C800F21FE72BE82BDB2B0130F635F70D890BF1
:1007D800E92B72087402031DF32B71087302031CC2
:1007E800F62BF72BFC2B7108F3027208F43B7614F6
:1007F8000130F236F10C890BFD2B0130F802031D94
:10080800062C072CE82B7708F2007608F100080080
:100818002000440845040319122C132C3C2CFA011F
:10082800FA0A1F2C0130C435C50D890B172C01306D
:10083800F9007908FA07C51F222C232C162C450825
:100848004702031D292C44084602031C2C2C2D2C7E
:10085800312C4408C6024508C73B0130C536C40CD4
:10086800890B322C0130FA02031D3B2C3C2C232C23
:100878004708C5004608C4000800F20021008E1091
:1008880022008E1021000E15F30122008E14200084
:100898000E1D4F2C502C532C0314F40D552C74356D
:1008A800F40022008E100D30890B582C0000013006
:1008B800F1007108F30708307302031C642C652CDF
:1008C800492C21000E117203031D6B2C6C2C6F2C0C
:1008D80022000E11712C22000E158E148E10740831
:1008E8000800F30021000E118E10F4017308F100C6
:1008F800F201740A812CF135F20D890B7F2CF11F5E
:10090800862C872C8A2C22000E158C2C22000E1186
:100918008E140032003222008E100130F10071086E
:10092800F40709307402031C9A2C9B2C7A2C0800BB
:10093800F300F40174087307F20072088600870157
:1009480001088431D52484310130F2007208F4079B
:1009580011307402031CB12CB22C9E2C080021000B
:100968000E128E16003023009C0022309B0020308F
:100978009E0090309D009F151E158B170B172100A8
:10098800911608008431E82484317030843175244C
:100998008431AC308431752484318431DF2484314E
:1009A8000800F1002000111EDA2CDB2CD62C71086F
:1009B80023009A00080021000E118E1022000E114B
:1009C8008E108E140E15080021000E118E102200B4
:1009D8000E158E140E118E1008002000911EF52C95
:1009E800F62CF12C2300190808006400800101315D
:0809F800890BFA2C00340834CD
:020000040001F9
:04000E00A409FF1C26
:00000001FF
