:020000040000FA
:0400000080314528DE
:100008007E1480318431E92480312000AE005330E1
:100018002E06031D102811281428FC14AD014328AE
:1000280050302E06031919281A283028FC1C1D28C0
:100038001E2830282D08283E860087012E088100BA
:100048000130F0007008AD0702302D02031C2D2886
:100058002E284328FC10432850302E06031D35282F
:1000680036284328FC1C39283A28432831302806EA
:10007800031D3F28402843287C14FC1043287E1089
:100088000900803147288431F7248031E000FC01E1
:10009800203084000030850024308431F124803100
:1000A8007E102000803158287F30210099000C12E2
:1000B80022000C1221008E1122008E1123000E1135
:1000C8008431AB248031803021009E002000AF01B4
:1000D8005330B000B101B10A5030C0005730DE00D3
:1000E8000430DF000A30C4000030C500E830F100F9
:1000F8000330F2005730F3000430F4008331C82392
:10010800803172082000C7007108C60084310424B9
:10011800803120004408303EBC000A30C400003062
:10012800C5006430F1000030F2005730F3000430AD
:10013800F4008331C823803172082000C700710899
:10014800C60084310424803120004408303EBD00BC
:100158000A30C4000030C5000A30F1000030F20057
:100168005730F3000430F4008331C823803172081B
:100178002000C7007108C6008431042480312000A3
:100188004408303EBE000A30C4000030C500573075
:10019800C6000430C700843104248031200044089C
:1001A800303EBF008431BE24803102302000DD00A3
:1001B800A030DC009230890BDF28DC0BDF28DD0B58
:1001C800DF28000082316A22803178082000A300ED
:1001D8007708A2007608A1007508A0000030CC00BE
:1001E8000030CB000030CA000A30C9000030F400EB
:1001F8000130F3008630F200A030F1002308F80047
:100208002208F7002108F6002008F5008331222390
:10021800803174082000D0007308CF007208CE0027
:100228007108CD0083317D23803120004908303E9C
:10023800B2000030CC000030CB000030CA000A30D9
:10024800C9000030F4000030F3002730F20010300D
:10025800F1002308F8002208F7002108F60020081A
:10026800F50083312223803174082000D000730800
:10027800CF007208CE007108CD0083317D23803114
:1002880020004908303EB3000030CC000030CB00DD
:100298000030CA000A30C9000030F4000030F30012
:1002A8000330F200E830F1002308F8002208F700D4
:1002B8002108F6002008F5008331222380317408D4
:1002C8002000D0007308CF007208CE007108CD005E
:1002D80083317D23803120004908303EB40000304E
:1002E800CC000030CB000030CA000A30C900003012
:1002F800F4000030F3000030F2006430F10023080D
:10030800F8002208F7002108F6002008F5008331DC
:100318002223803174082000D0007308CF007208AF
:10032800CE007108CD0083317D238031200049083B
:10033800303EB5000030CC000030CB000030CA00A1
:100348000A30C9000030F4000030F3000030F20039
:100358000A30F1002308F8002208F7002108F60007
:100368002008F50083312223803174082000D00052
:100378007308CF007208CE007108CD0083317D2349
:10038800803120004908303EB6000030CC000030F3
:10039800CB000030CA000A30C9002308D000220868
:1003A800CF002108CE002008CD0083317D23803185
:1003B80020004908303EB700093021009D00423036
:1003C800890BE429003221009D1402302000DD0051
:1003D8000430DC00BA30890BEF29DC0BEF29DD0B88
:1003E800EF29000021001C082000AC0021001B0898
:1003F8002000AB000A30C4000030C500E830F1002E
:100408000330F2002C08F4002B08F3008331C823D2
:10041800803172082000C7007108C60084310424A6
:10042800803120004408303EB8000A30C400003053
:10043800C5006430F1000030F2002C08F4002B08ED
:10044800F3008331C823803172082000C700710887
:10045800C60084310424803120004408303EB900AD
:100468000A30C4000030C5000A30F1000030F20044
:100478002C08F4002B08F3008331C823803172085C
:100488002000C7007108C600843104248031200090
:100498004408303EBA000A30C4000030C5002C08B9
:1004A800C7002B08C600843104248031200044088A
:1004B800303EBB007C1C612A622AD6287C10303072
:1004C800843194248031D628803145288431E02431
:1004D8008231713084316D24823101308431392484
:1004E8008231013084313924823101308431392418
:1004F800823101308431392482310F392000C4001F
:10050800C501C601C7014708CF004608CE00450807
:10051800CD004408CC0001308431392482312000D8
:10052800C400C501C601C7014708D3004608D20068
:100538004508D1004408D000003084313924823184
:100548002000C400C501C601C7014708D7004608F6
:10055800D6004508D5004408D4008431D724823118
:1005680020005008C4005108C5005208C6005308AE
:10057800C7000830C435C50DC60DC70D890BBE2A86
:100588000F304C05C80000304D05C90000304E053D
:10059800CA0000304F05CB001030C835C90DCA0D50
:1005A800CB0D890BD12A4808C4044908C5044A0858
:1005B800C6044B08C70454084404D8005508450429
:1005C800D90056084604DA0057084704DB005B08E0
:1005D800031DF82A86305802EB30593B0B305A3B42
:1005E800031CF72AF82A012B00302000DB000B300F
:1005F800DA00EB30D9008530D80020005B08031DF5
:100608000E2BCD305802CC30593B04305A3B0318DE
:100618000E2B0F2B182B00302000DB000430DA00E3
:10062800CC30D900CD30D80020005B08F8005A083B
:10063800F7005908F6005808F500080000302000B7
:10064800C7000030C6000030C5000030C400740880
:100658007304720471040319322B332B742BC801F1
:10066800C80A412B0130F135F20DF30DF40D890B59
:10067800372B0130F9007908C807F41F442B452BA4
:10068800362B0130C435C50DC60DC70D890B462B59
:1006980074087802031D5A2B73087702031D5A2B1E
:1006A80072087602031D5A2B71087502031C5D2B14
:1006B8005E2B672B7108F5027208F63B7308F73B4F
:1006C8007408F83B44140130F436F30CF20CF10CC6
:1006D800890B682B0130C802031D732B742B452B23
:1006E8004708F4004608F3004508F2004408F10002
:1006F800080020004C084B044A0449040319852BC0
:10070800862BBF2BFB01FB0A942B0130C935CA0D80
:10071800CB0DCC0D890B8A2B0130FA007A08FB0728
:10072800CC1F972B982B892B4C085002031DA62B06
:100738004B084F02031DA62B4A084E02031DA62B89
:1007480049084D02031CA92BAA2BB22B4908CD023C
:100758004A08CE3B4B08CF3B4C08D03B0130CC3647
:10076800CB0CCA0CC90C890BB32B0130FB02031D3F
:10077800BE2BBF2B982B5008CC004F08CB004E083F
:10078800CA004D08C9000800F601F7017108720493
:100798000319CF2BD02BFF2BF801F80ADC2B0130E3
:1007A800F135F20D890BD42B0130F5007508F807E7
:1007B800F21FDF2BE02BD32B0130F635F70D890B19
:1007C800E12B72087402031DEB2B71087302031CE2
:1007D800EE2BEF2BF42B7108F3027208F43B76141E
:1007E8000130F236F10C890BF52B0130F802031DAC
:1007F800FE2BFF2BE02B7708F2007608F1000800AB
:1008080020004408450403190A2C0B2C342CFA0147
:10081800FA0A172C0130C435C50D890B0F2C01308D
:10082800F9007908FA07C51F1A2C1B2C0E2C45084D
:100838004702031D212C44084602031C242C252CA6
:10084800292C4408C6024508C73B0130C536C40CEC
:10085800890B2A2C0130FA02031D332C342C1B2C53
:100868004708C5004608C4000800F20021008E10A1
:1008780022008E1021000E15F30122008E14200094
:100888000E1D472C482C4B2C0314F40D4D2C74359D
:10089800F40022008E100D30890B502C000001301E
:1008A800F1007108F30708307302031C5C2C5D2CFF
:1008B800412C21000E117203031D632C642C672C3C
:1008C80022000E11692C22000E158E148E10740849
:1008D8000800F30021000E118E10F4017308F100D6
:1008E800F201740A792CF135F20D890B772CF11F7E
:1008F8007E2C7F2C822C22000E15842C22000E11B7
:100908008E140032003222008E100130F10071087E
:10091800F40709307402031C922C932C722C0800E3
:10092800F300F40174087307F20072088600870167
:1009380001088431CD2484310130F2007208F407B3
:1009480011307402031CA92CAA2C962C0800210033
:100958000E128E16003023009C0022309B0020309F
:100968009E0090309D009F151E158B170B172100B8
:10097800911608008431E0248431703084316D246C
:100988008431AC3084316D2484318431D72484316E
:100998000800F1002000111ED22CD32CCE2C710897
:1009A80023009A00080021000E118E1022000E115B
:1009B8008E108E140E15080021000E118E102200C4
:1009C8000E158E140E118E1008002000911EED2CAD
:1009D800EE2CE92C2300190808006400800101317D
:0809E800890BF22C00340834E5
:020000040001F9
:04000E00A409FF1C26
:00000001FF
