:020000040000FA
:0400000080314528DE
:100008007E1480318531252580312000AE005330A3
:100018002E06031D102811281428FC14AD014328AE
:1000280050302E06031919281A283028FC1C1D28C0
:100038001E2830282D08283E860087012E088100BA
:100048000130F0007008AD0702302D02031C2D2886
:100058002E284328FC10432850302E06031D35282F
:1000680036284328FC1C39283A28432831302806EA
:10007800031D3F28402843287C14FC1043287E1089
:10008800090080314728853133258031E000FC01A3
:100098002030840000308500243085312D258031C2
:1000A8007E102000803158287F30210099000C12E2
:1000B80022000C1221008E1122008E1123000E1135
:1000C80021000C1523000C158431E7248031803081
:1000D80021009E002000AF015330B000B101B10AE9
:1000E8005030C0005730DE000430DF000A30C40052
:1000F8000030C500E830F1000330F2005730F3005B
:100108000430F40084310424803172082000C700D0
:100118007108C60084314024803120004408303EF4
:10012800BC000A30C4000030C5006430F100003063
:10013800F2005730F3000430F40084310424803195
:1001480072082000C7007108C6008431402480313D
:1001580020004408303EBD000A30C4000030C5000D
:100168000A30F1000030F2005730F3000430F40098
:1001780084310424803172082000C7007108C60049
:1001880084314024803120004408303EBE000A30CB
:10019800C4000030C5005730C6000430C7008431A1
:1001A8004024803120004408303EBF00F7288431C5
:1001B800FA24803102302000DD00A030DC009230CB
:1001C800890BE428DC0BE428DD0BE42800008231ED
:1001D800A622803178082000A3007708A2007608BC
:1001E800A1007508A0002308031D0429CE302002B1
:1001F800CC30213B0430223B031C03290429DB2893
:1002080020002308031D112985302002EB30213BF3
:100218000B30223B031811291229DB288431FA24D8
:10022800803102302000DD00A030DC009230890BE4
:100238001B29DC0B1B29DD0B1B2900008231A622A0
:10024800803178082000A3007708A2007608A10072
:100258007508A0000030CC000030CB000030CA0088
:100268000A30C9000030F4000130F3008630F20093
:10027800A030F1002308F8002208F7002108F60052
:100288002008F50083315E23803174082000D000F7
:100298007308CF007208CE007108CD008331B923EE
:1002A800803120004908303EB2000030CC000030D8
:1002B800CB000030CA000A30C9000030F40000301A
:1002C800F3002730F2001030F1002308F80022086C
:1002D800F7002108F6002008F50083315E238031FD
:1002E80074082000D0007308CF007208CE0071088F
:1002F800CD008331B923803120004908303EB30056
:100308000030CC000030CB000030CA000A30C900F1
:100318000030F4000030F3000330F200E830F10060
:100328002308F8002208F7002108F6002008F50045
:1003380083315E23803174082000D0007308CF0019
:100348007208CE007108CD008331B92380312000B6
:100358004908303EB4000030CC000030CB000030FB
:10036800CA000A30C9000030F4000030F300003041
:10037800F2006430F1002308F8002208F700210891
:10038800F6002008F50083315E23803174082000D0
:10039800D0007308CF007208CE007108CD008331F9
:1003A800B923803120004908303EB5000030CC0028
:1003B8000030CB000030CA000A30C9000030F40019
:1003C8000030F3000030F2000A30F1002308F80092
:1003D8002208F7002108F6002008F50083315E2383
:1003E800803174082000D0007308CF007208CE0056
:1003F8007108CD008331B923803120004908303E8F
:10040800B6000030CC000030CB000030CA000A3003
:10041800C9002308D0002208CF002108CE002008F8
:10042800CD008331B923803120004908303EB70020
:10043800093021009D004230890B202A003221001A
:100448009D1402302000DD000430DC00BA30890B36
:100458002B2ADC0B2B2ADD0B2B2A000021001C0881
:100468002000AC0021001B082000AB000A30C400AB
:100478000030C500E830F1000330F2002C08F40029
:100488002B08F30084310424803172082000C7004F
:100498007108C60084314024803120004408303E71
:1004A800B8000A30C4000030C5006430F1000030E4
:1004B800F2002C08F4002B08F30084310424803166
:1004C80072082000C7007108C600843140248031BA
:1004D80020004408303EB9000A30C4000030C5008E
:1004E8000A30F1000030F2002C08F4002B08F30069
:1004F80084310424803172082000C7007108C600C6
:1005080084314024803120004408303EBA000A304B
:10051800C4000030C5002C08C7002B08C600843171
:100528004024803120004408303EBB007C1C9D2ABA
:100538009E2A12297C1030308431D024803112292F
:100548008031452885311C25823171308431A924B8
:10055800823101308431752482310130843175242F
:10056800823101308431752482310130843175241F
:1005780082310F392000C400C501C601C7014708F0
:10058800CF004608CE004508CD004408CC00013015
:100598008431752482312000C400C501C601C70119
:1005A8004708D3004608D2004508D1004408D000C7
:1005B80000308431752482312000C400C501C60191
:1005C800C7014708D7004608D6004508D5004408A3
:1005D800D40085311325823120005008C400510809
:1005E800C5005208C6005308C7000830C435C50DF9
:1005F800C60DC70D890BFA2A0F304C05C80000300C
:100608004D05C90000304E05CA0000304F05CB002B
:100618001030C835C90DCA0DCB0D890B0D2B4808F4
:10062800C4044908C5044A08C6044B08C70454084A
:100638004404D80055084504D90056084604DA0091
:1006480057084704DB005B08031D342B863058022B
:10065800EB30593B0B305A3B031C332B342B3D2BCF
:1006680000302000DB000B30DA00EB30D900853099
:10067800D80020005B08031D4A2BCD305802CC302F
:10068800593B04305A3B03184A2B4B2B542B003050
:100698002000DB000430DA00CC30D900CD30D8009F
:1006A80020005B08F8005A08F7005908F6005808B7
:1006B800F500080000302000C7000030C6000030F8
:1006C800C5000030C400740873047204710403196F
:1006D8006E2B6F2BB02BC801C80A7D2B0130F1356A
:1006E800F20DF30DF40D890B732B0130F900790825
:1006F800C807F41F802B812B722B0130C435C50D20
:10070800C60DC70D890B822B74087802031D962B22
:1007180073087702031D962B72087602031D962B29
:1007280071087502031C992B9A2BA32B7108F502EB
:100738007208F63B7308F73B7408F83B4414013021
:10074800F436F30CF20CF10C890BA42B0130C8021F
:10075800031DAF2BB02B812B4708F4004608F3008C
:100768004508F2004408F100080020004C084B043A
:100778004A0449040319C12BC22BFB2BFB01FB0ABA
:10078800D02B0130C935CA0DCB0DCC0D890BC62B2A
:100798000130FA007A08FB07CC1FD32BD42BC52BCA
:1007A8004C085002031DE22B4B084F02031DE22B9D
:1007B8004A084E02031DE22B49084D02031CE52B93
:1007C800E62BEE2B4908CD024A08CE3B4B08CF3B1F
:1007D8004C08D03B0130CC36CB0CCA0CC90C890B69
:1007E800EF2B0130FB02031DFA2BFB2BD42B5008F7
:1007F800CC004F08CB004E08CA004D08C9000800BD
:10080800F601F7017108720403190B2C0C2C3B2C10
:10081800F801F80A182C0130F135F20D890B102C6B
:100828000130F5007508F807F21F1B2C1C2C0F2C43
:100838000130F635F70D890B1D2C72087402031D63
:10084800272C71087302031C2A2C2B2C302C7108BE
:10085800F3027208F43B76140130F236F10C890B7E
:10086800312C0130F802031D3A2C3B2C1C2C770844
:10087800F2007608F1000800200044084504031936
:10088800462C472C702CFA01FA0A532C0130C43537
:10089800C50D890B4B2C0130F9007908FA07C51FE3
:1008A800562C572C4A2C45084702031D5D2C44083A
:1008B8004602031C602C612C652C4408C6024508BE
:1008C800C73B0130C536C40C890B662C0130FA02CF
:1008D800031D6F2C702C572C4708C5004608C40010
:1008E8000800F20021008E1022008E1021000E1543
:1008F800F30122008E1420000E1D832C842C872CDB
:100908000314F40D892C7435F40022008E100D3078
:10091800890B8C2C00000130F1007108F3070830B6
:100928007302031C982C992C7D2C21000E11720344
:10093800031D9F2CA02CA32C22000E11A52C2200F5
:100948000E158E148E1074080800F30021000E1185
:100958008E10F4017308F100F201740AB52CF13518
:10096800F20D890BB32CF11FBA2CBB2CBE2C220024
:100978000E15C02C22000E118E14003200322200F7
:100988008E100130F1007108F40709307402031C5D
:10099800CE2CCF2CAE2C0800F300F401740873079A
:1009A800F200720886008701010885310925843123
:1009B8000130F2007208F40711307402031CE52CB0
:1009C800E62CD22C080021000E128E1600302300CF
:1009D8009C0022309B0020309E0090309D009F1587
:1009E8001E158B170B1721009116080085311C2541
:1009F800843170308431A9248431AC308431A92405
:100A080084318531132584310800F1002000111E3E
:100A18000E2D0F2D0A2D710823009A0008002100C1
:100A28000E118E1022000E118E108E140E15080055
:100A380021000E118E1022000E158E140E118E102C
:100A480008002000911E292D2A2D252D2300190884
:100A58000800640080010131890B2E2D0034083410
:020000040001F9
:04000E00A409FF1C26
:00000001FF
