:020000040000FA
:0400000080314528DE
:100008007E1480318431ED2480312000AE005330DD
:100018002E06031D102811281428FC14AD014328AE
:1000280050302E06031919281A283028FC1C1D28C0
:100038001E2830282D08283E860087012E088100BA
:100048000130F0007008AD0702302D02031C2D2886
:100058002E284328FC10432850302E06031D35282F
:1000680036284328FC1C39283A28432831302806EA
:10007800031D3F28402843287C14FC1043287E1089
:100088000900803147288431FB248031E000FC01DD
:10009800203084000030850024308431F5248031FC
:1000A8007E102000803158287F30210099000C12E2
:1000B80022000C1221008E1122008E1123000E1135
:1000C80021000C1523000C158431AF2480318030B9
:1000D80021009E002000AF015330B000B101B10AE9
:1000E8005030C0005730DE000430DF000A30C40052
:1000F8000030C500E830F1000330F2005730F3005B
:100108000430F4008331CC23803172082000C7000A
:100118007108C60084310824803120004408303E2C
:10012800BC000A30C4000030C5006430F100003063
:10013800F2005730F3000430F4008331CC238031CF
:1001480072082000C7007108C60084310824803175
:1001580020004408303EBD000A30C4000030C5000D
:100168000A30F1000030F2005730F3000430F40098
:100178008331CC23803172082000C7007108C60083
:1001880084310824803120004408303EBE000A3003
:10019800C4000030C5005730C6000430C7008431A1
:1001A8000824803120004408303EBF008431C22436
:1001B800803102302000DD00A030DC009230890B55
:1001C800E328DC0BE328DD0BE328000082316E22F4
:1001D800803178082000A3007708A2007608A100E3
:1001E8007508A0000030CC000030CB000030CA00F9
:1001F8000A30C9000030F4000130F3008630F20004
:10020800A030F1002308F8002208F7002108F600C2
:100218002008F50083312623803174082000D0009F
:100228007308CF007208CE007108CD008331812396
:10023800803120004908303EB2000030CC00003048
:10024800CB000030CA000A30C9000030F40000308A
:10025800F3002730F2001030F1002308F8002208DC
:10026800F7002108F6002008F500833126238031A5
:1002780074082000D0007308CF007208CE007108FF
:10028800CD0083318123803120004908303EB300FE
:100298000030CC000030CB000030CA000A30C90062
:1002A8000030F4000030F3000330F200E830F100D1
:1002B8002308F8002208F7002108F6002008F500B6
:1002C80083312623803174082000D0007308CF00C2
:1002D8007208CE007108CD0083318123803120005F
:1002E8004908303EB4000030CC000030CB0000306C
:1002F800CA000A30C9000030F4000030F3000030B2
:10030800F2006430F1002308F8002208F700210801
:10031800F6002008F5008331262380317408200078
:10032800D0007308CF007208CE007108CD00833169
:100338008123803120004908303EB5000030CC00D0
:100348000030CB000030CA000A30C9000030F40089
:100358000030F3000030F2000A30F1002308F80002
:100368002208F7002108F6002008F500833126232B
:10037800803174082000D0007308CF007208CE00C6
:100388007108CD0083318123803120004908303E37
:10039800B6000030CC000030CB000030CA000A3074
:1003A800C9002308D0002208CF002108CE00200869
:1003B800CD0083318123803120004908303EB700C9
:1003C800093021009D004230890BE82900322100C4
:1003D8009D1402302000DD000430DC00BA30890BA7
:1003E800F329DC0BF329DD0BF329000021001C089D
:1003F8002000AC0021001B082000AB000A30C4001C
:100408000030C500E830F1000330F2002C08F40099
:100418002B08F3008331CC23803172082000C700F9
:100428007108C60084310824803120004408303E19
:10043800B8000A30C4000030C5006430F100003054
:10044800F2002C08F4002B08F3008331CC23803110
:1004580072082000C7007108C60084310824803162
:1004680020004408303EB9000A30C4000030C500FE
:100478000A30F1000030F2002C08F4002B08F300D9
:100488008331CC23803172082000C7007108C60070
:1004980084310824803120004408303EBA000A30F4
:1004A800C4000030C5002C08C7002B08C6008431E2
:1004B8000824803120004408303EBB007C1C652A9B
:1004C800662ADA287C103030843198248031DA2882
:1004D800803145288431E42482317130843171249B
:1004E8008231013084313D248231013084313D2410
:1004F8008231013084313D248231013084313D2400
:1005080082310F392000C400C501C601C701470860
:10051800CF004608CE004508CD004408CC00013085
:1005280084313D2482312000C400C501C601C701C1
:100538004708D3004608D2004508D1004408D00037
:10054800003084313D2482312000C400C501C60139
:10055800C7014708D7004608D6004508D500440813
:10056800D4008431DB24823120005008C4005108B3
:10057800C5005208C6005308C7000830C435C50D69
:10058800C60DC70D890BC22A0F304C05C8000030B4
:100598004D05C90000304E05CA0000304F05CB009C
:1005A8001030C835C90DCA0DCB0D890BD52A48089E
:1005B800C4044908C5044A08C6044B08C7045408BB
:1005C8004404D80055084504D90056084604DA0002
:1005D80057084704DB005B08031DFC2A86305802D5
:1005E800EB30593B0B305A3B031CFB2AFC2A052BEA
:1005F80000302000DB000B30DA00EB30D90085300A
:10060800D80020005B08031D122BCD305802CC30D7
:10061800593B04305A3B0318122B132B1C2B003068
:100628002000DB000430DA00CC30D900CD30D8000F
:1006380020005B08F8005A08F7005908F600580827
:10064800F500080000302000C7000030C600003068
:10065800C5000030C40074087304720471040319DF
:10066800362B372B782BC801C80A452B0130F135BA
:10067800F20DF30DF40D890B3B2B0130F9007908CD
:10068800C807F41F482B492B3A2B0130C435C50D38
:10069800C60DC70D890B4A2B74087802031D5E2B03
:1006A80073087702031D5E2B72087602031D5E2B0A
:1006B80071087502031C612B622B6B2B7108F50204
:1006C8007208F63B7308F73B7408F83B4414013092
:1006D800F436F30CF20CF10C890B6C2B0130C802C8
:1006E800031D772B782B492B4708F4004608F300A5
:1006F8004508F2004408F100080020004C084B04AB
:100708004A0449040319892B8A2BC32BFB01FB0AD2
:10071800982B0130C935CA0DCB0DCC0D890B8E2B0A
:100728000130FA007A08FB07CC1F9B2B9C2B8D2BE2
:100738004C085002031DAA2B4B084F02031DAA2B7D
:100748004A084E02031DAA2B49084D02031CAD2B73
:10075800AE2BB62B4908CD024A08CE3B4B08CF3BFF
:100768004C08D03B0130CC36CB0CCA0CC90C890BD9
:10077800B72B0130FB02031DC22BC32B9C2B500847
:10078800CC004F08CB004E08CA004D08C90008002D
:10079800F601F701710872040319D32BD42B032C2B
:1007A800F801F80AE02B0130F135F20D890BD82B4E
:1007B8000130F5007508F807F21FE32BE42BD72B5F
:1007C8000130F635F70D890BE52B72087402031D0D
:1007D800EF2B71087302031CF22BF32BF82B710813
:1007E800F3027208F43B76140130F236F10C890BEF
:1007F800F92B0130F802031D022C032CE42B770897
:10080800F2007608F10008002000440845040319A6
:100818000E2C0F2C382CFA01FA0A1B2C0130C43587
:10082800C50D890B132C0130F9007908FA07C51F8B
:100838001E2C1F2C122C45084702031D252C44088A
:100848004602031C282C292C2D2C4408C6024508D6
:10085800C73B0130C536C40C890B2E2C0130FA0277
:10086800031D372C382C1F2C4708C5004608C40028
:100878000800F20021008E1022008E1021000E15B3
:10088800F30122008E1420000E1D4B2C4C2C4F2CF3
:100898000314F40D512C7435F40022008E100D3021
:1008A800890B542C00000130F1007108F30708305F
:1008B8007302031C602C612C452C21000E1172035D
:1008C800031D672C682C6B2C22000E116D2C220046
:1008D8000E158E148E1074080800F30021000E11F6
:1008E8008E10F4017308F100F201740A7D2CF135C1
:1008F800F20D890B7B2CF11F822C832C862C220075
:100908000E15882C22000E118E140032003222009F
:100918008E100130F1007108F40709307402031CCD
:10092800962C972C762C0800F300F40174087307B2
:10093800F20072088600870101088431D1248431CD
:100948000130F2007208F40711307402031CAD2C58
:10095800AE2C9A2C080021000E128E1600302300AF
:100968009C0022309B0020309E0090309D009F15F7
:100978001E158B170B172100911608008431E424EB
:1009880084317030843171248431AC3084317124E5
:1009980084318431DB2484310800F1002000111EE9
:1009A800D62CD72CD22C710823009A0008002100DD
:1009B8000E118E1022000E118E108E140E150800C6
:1009C80021000E118E1022000E158E140E118E109D
:1009D80008002000911EF12CF22CED2C23001908A0
:1009E8000800640080010131890BF62C00340834BA
:020000040001F9
:04000E00A409FF1C26
:00000001FF
